:100000000C9456000C9468000C9468000C946C02DC
:100010000C9468000C9468000C9468000C946800C0
:100020000C9468000C9468000C9468000C946800B0
:100030000C9468000C9468000C9468000C946800A0
:100040000C9468000C9468000C9468000C94680090
:100050000C9468000C944C030C9468000C94680099
:100060000C9468000C9468000C9468000C94680070
:100070000C9468000C9468000C9468000C94680060
:100080000C9468000C9468000C9468000C94680050
:100090000C9468000C9468000C9468000C94680040
:1000A0000C9468000C9468000C94680011241FBE26
:1000B000CFEFDAE0DEBFCDBF25E0A0E0B1E001C0C8
:1000C0001D92A732B207E1F70E94DC030C9477057A
:1000D0000C9400000F931F93CF93DF93EC01892BB7
:1000E00009F472C0688349832A830B831C8350E020
:1000F000495F5F4F83E0559547958A95E1F7420345
:10010000900111243E832D831F821886198681E079
:100110008A872FEF81E19AE7215080409040E1F7F4
:1001200000C0000088810E949C0380E00E94B5030B
:100130008EEA0E94B50385ED0E94B50380E80E9417
:10014000B50388EA0E94B5038A8181500E94B503F5
:1001500083ED0E94B50380E00E94B50380E40E9415
:10016000B5038DE80E94B50384E10E94B50380E2E7
:100170000E94B50382E00E94B5038AED0E94B50398
:1001800082E10E94B50381E80E94B5038FE70E94D7
:10019000B50389ED0E94B50381EF0E94B5038BED95
:1001A0000E94B50380E40E94B50384EA0E94B5036F
:1001B00086EA0E94B5038FEA0E94B503DF91CF91D2
:1001C0001F910F910C94CB03DF91CF911F910F9151
:1001D0000895FC01892B81F040876187818150E07F
:1001E000495F5F4F93E0569547959A95E1F7869F53
:1001F000400D511D112447830895FC01892B09F0FE
:10020000628708950895089508950895CF93DF9320
:10021000EC0188810E949C0380E40E94B5038FEF6B
:100220000E94B5030E94CB032FEF83ED90E3215092
:1002300080409040E1F700C0000088810E949C034C
:1002400080E00E94B50385EA0E94B5030E94CB03BB
:100250002FEF83ED90E3215080409040E1F700C004
:10026000000088810E949C0380E00E94B50384EA1C
:100270000E94B5030E94CB032FEF83ED90E3215042
:1002800080409040E1F700C00000DF91CF910895D9
:1002900010920001109201011092020110920301CC
:1002A00080E090E0409104015091050160910601C9
:1002B00070910701FC01EE0FFF1FEE0FFF1FE85FBB
:1002C000FE4F40835183628373830196843091058E
:1002D00049F7F8941092C90052985A9A809169008F
:1002E0008F7E8093690080916900806280936900AD
:1002F000EA9A789408952F923F924F925F926F926C
:100300007F928F929F92AF92BF92CF92DF92EF92A5
:10031000FF920F931F93CF93DF93CDB7DEB7A297D2
:100320000FB6F894DEBF0FBECDBF1C010E9487033D
:100330006B017C018091140190911501A09116012F
:10034000B0911701009108011091090120910A0153
:1003500030910B01B701A601481B590B6A0B7B0BAF
:100360004D8F5E8F6F8F78A3BC01CD01601B710B29
:10037000820B930B0E9458048B018AA399A320E05F
:1003800030E0A90169831A838B839C8369817A8118
:100390008B819C810E94E103811509F493C00D8338
:1003A0001E837AA17F8389A188872D813E814F8119
:1003B00058856CE174ED8BEC9BE30E94E6032D8D78
:1003C0003E8D4F8D58A1283833414105510508F025
:1003D0007EC020E03AEB4BE55AE469877A878B8749
:1003E0009C8769857A858B859C850E940A052B01EF
:1003F0003C01F1014082518262827382609100016E
:100400007091010180910201909103010E945804B2
:100410002DEB32EE47E05BE36D877E878F87988B0D
:100420006D857E858F8598890E940A058B018D8355
:1004300099834B015C01F10180869186A286B38687
:10044000C701B6010E945804698B7A8B8B8B9C8BF9
:1004500029893A894B895C890D8B1E8BAF8AB88EAE
:100460006D897E898F89988D0E94E60320E03AEBA2
:100470004BE55AE4698F7A8F8B8F9C8F698D7A8DCB
:100480008B8D9C8D0E940A05F101648375838683A0
:100490009783A2960FB6F894DEBF0FBECDBFDF9153
:1004A000CF911F910F91FF90EF90DF90CF90BF9071
:1004B000AF909F908F907F906F905F904F903F9004
:1004C0002F90089560E070E080E090E078CF60E0E9
:1004D00070E080E090E08BCF1F920F920FB60F92EA
:1004E0001124CF92DF92EF92FF922F933F934F937D
:1004F0005F936F937F938F939F93AF93BF93EF938C
:10050000FF930E9487036B017C01809114019091FD
:100510001501A0911601B0911701A7019601281BA2
:10052000390B4A0B5B0BDA01C90124363105410551
:10053000510508F451C088389341A105B10508F070
:1005400060C080910C0190910D01A0910E01B091BD
:100550000F018093080190930901A0930A01B093C1
:100560000B018091100190911101A0911201B091A5
:10057000130180930C0190930D01A0930E01B09391
:100580000F018091140190911501A0911601B09175
:1005900017018093100190931101A0931201B09361
:1005A0001301C0921401D0921501E0921601F0924D
:1005B00017018091000190910101A0910201B09179
:1005C00003010196A11DB11D8093000190930101CB
:1005D000A0930201B0930301FF91EF91BF91AF91FE
:1005E0009F918F917F916F915F914F913F912F914B
:1005F000FF90EF90DF90CF900F900FBE0F901F9065
:100600001895C0920801D0920901E0920A01F09277
:100610000B01C0920C01D0920D01E0920E01F092FC
:100620000F01C0921001D0921101E0921201F092DC
:100630001301B7CF0F931F933F9AEAE7F0E0808151
:100640008F778083E4E6F0E080818F6E8083E5E63B
:10065000F0E080818969808383B7817F83BF08E16F
:1006600011E020E440E86DE388E195E00E946A0033
:100670000E9448010E946F0388E195E01F910F914D
:100680000C9406010E94870383B7816083BF88951D
:1006900083B78E7F83BF08951F921FB61F921124C8
:1006A0008F939F93AF93BF938091230590912405DF
:1006B000A0912505B09126050196A11DB11D80933D
:1006C000230590932405A0932505B0932605BF919B
:1006D000AF919F918F911F901FBE1F901895E4E6D8
:1006E000F0E080818F7D8083F89410922305109232
:1006F0002405109225051092260514BC8BE085BDBB
:1007000089EF87BD82E080936E00789408956091B0
:100710002305709124058091250590912605089563
:100720008093BB0084E88093BC008091BC0087FF6D
:10073000FCCF8091B9000895880F909164009F7755
:10074000909364001092B90098E49093B80094E0FC
:100750009093BC0094EA9093BC009091BC0097FFEA
:10076000FCCF9091B9000C9490030C9490030F93DC
:100770001F93CF93DF93EC018C01060F111DC0175F
:10078000D10729F4DF91CF911F910F91089589919D
:100790000E949003F4CF84E98093BC008091BC0058
:1007A00087FFFCCF8091B9001092BC00809164005B
:1007B00080688093640008950E941A030E94420397
:1007C000FDCF0E94950408F481E008950E94FA0389
:1007D0000C94D0040E94C90458F00E94C20440F056
:1007E00029F45F3F29F00C94B90451110C940405CD
:1007F0000C94BF040E94E10468F39923B1F35523DC
:1008000091F3951B550BBB27AA2762177307840723
:1008100038F09F5F5F4F220F331F441FAA1FA9F3B9
:1008200035D00E2E3AF0E0E832D091505040E695A7
:10083000001CCAF72BD0FE2F29D0660F771F881F08
:10084000BB1F261737074807AB07B0E809F0BB0BFB
:10085000802DBF01FF2793585F4F3AF09E3F51050F
:1008600078F00C94B9040C9404055F3FE4F3983ECF
:10087000D4F3869577956795B795F7959F5FC9F7F8
:10088000880F911D9695879597F90895E1E0660F79
:10089000771F881FBB1F621773078407BA0720F0F2
:1008A000621B730B840BBA0BEE1F88F7E09508955B
:1008B000E89409C097FB3EF49095809570956195FA
:1008C0007F4F8F4F9F4F9923A9F0F92F96E9BB27B0
:1008D0009395F695879577956795B795F111F8CF2C
:1008E000FAF4BB0F11F460FF1BC06F5F7F4F8F4F97
:1008F0009F4F16C0882311F096E911C0772321F08D
:100900009EE8872F762F05C0662371F096E8862F24
:1009100070E060E02AF09A95660F771F881FDAF77B
:10092000880F9695879597F90895990F0008550FA8
:10093000AA0BE0E8FEEF16161706E807F907C0F065
:1009400012161306E407F50798F0621B730B840B6D
:10095000950B39F40A2661F0232B242B252B21F447
:1009600008950A2609F4A140A6958FEF811D811DE7
:10097000089597F99F6780E870E060E008959FEF21
:1009800080EC089500240A94161617061806090626
:10099000089500240A9412161306140605060895F5
:1009A000092E0394000C11F4882352F0BB0F40F47D
:1009B000BF2B11F460FF04C06F5F7F4F8F4F9F4FBD
:1009C000089557FD9058440F551F59F05F3F71F03F
:1009D0004795880F97FB991F61F09F3F79F08795A6
:1009E0000895121613061406551FF2CF4695F1DF2F
:1009F00008C0161617061806991FF1CF86957105BF
:100A0000610508940895E894BB2766277727CB01F2
:100A100097F908950E941D050C94D0040E94C20409
:100A200038F00E94C90420F0952311F00C94B90409
:100A30000C94BF0411240C9404050E94E10470F38B
:100A4000959FC1F3950F50E0551F629FF001729F73
:100A5000BB27F00DB11D639FAA27F00DB11DAA1F82
:100A6000649F6627B00DA11D661F829F2227B00DCF
:100A7000A11D621F739FB00DA11D621F839FA00D5A
:100A8000611D221F749F3327A00D611D231F849FAA
:100A9000600D211D822F762F6A2F11249F57504001
:100AA0009AF0F1F088234AF0EE0FFF1FBB1F661F7C
:100AB000771F881F91505040A9F79E3F510580F045
:100AC0000C94B9040C9404055F3FE4F3983ED4F30E
:100AD000869577956795B795F795E7959F5FC1F7E9
:100AE000FE2B880F911D9695879597F90895F89498
:020AF000FFCF36
:00000001FF
